:020000040800F2
:10000000680A0020DD0100085B3F00088D31000810
:10001000593F0008790F0008B145000800000000B2
:100020000000000000000000000000005F3F00082A
:1000300089100008000000005D3F0008613F0008D3
:10004000F7010008F7010008F7010008F7010008B0
:10005000F7010008F7010008F7010008F7010008A0
:10006000F7010008F7010008F7010008F701000890
:10007000F7010008F7010008F7010008F701000880
:10008000F7010008F7010008F7010008F701000870
:10009000F7010008F7010008F7010008F701000860
:1000A000F7010008F7010008F7010008F701000850
:1000B00061400008F7010008F7010008F701000897
:1000C000F7010008F7010008F7010008F701000830
:1000D000F7010008F7010008F7010008F701000820
:1000E0003D110008F7010008F7010008F7010008BA
:1000F000F7010008F7010008F7010008F701000800
:10010000F7010008F7010008F7010008F7010008EF
:10011000F7010008F7010008F7010008F7010008DF
:10012000F7010008F7010008F7010008F7010008CF
:10013000F7010008F7010008F7010008F7010008BF
:10014000F7010008F7010008F7010008F7010008AF
:10015000F7010008F7010008F7010008F70100089F
:10016000F7010008F7010008F7010008F70100088F
:10017000F7010008F7010008F7010008000000007F
:10018000F7010008F7010008F7010008F70100086F
:10019000F7010008F7010008F7010008F70100085F
:1001A000F7010008F7010008F7010008F70100084F
:1001B000F7010008F7010008F7010008F70100083F
:1001C000F7010008F7010008DFF80CD000F0A0F8F4
:1001D00000480047E94B0008680A002006488047AD
:1001E00006480047FEE7FEE7FEE7FEE7FEE7FEE71C
:1001F000FEE7FEE7FEE7FEE70D400008C901000844
:100200002DE9F05F0546002092469B46884606464B
:10021000814640241BE0284641464746224600F0DE
:1002200066F853465A46C01A914110D311461846F3
:10023000224600F04DF82D1A67EB01084F46224682
:100240000120002100F044F817EB00094E41201E68
:10025000A4F10104DFDC484631462A464346BDE8A6
:10026000F09F00000649074A0868504343F23902EC
:10027000104408604008704701490860704700005A
:10028000940000206D4EC64140EA01039B0703D055
:1002900009E008C9121F08C0042AFAD203E011F8C5
:1002A000013B00F8013B521EF9D27047D2B201E087
:1002B00000F8012B491EFBD270470022F6E710B56B
:1002C00013460A4604461946FFF7F0FF204610BDC4
:1002D000202A04DB203A00FA02F100207047914006
:1002E000C2F1200320FA03F3194390407047202AFB
:1002F00004DB203A21FA02F00021704721FA02F3D0
:10030000D040C2F1200291400843194670470000D6
:10031000064C074D06E0E06840F0010394E8070052
:1003200098471034AC42F6D3FFF752FF0469000837
:10033000246900081CB5044600F07CFA034600F06E
:1003400069FA02460020CDE900040648064C006820
:1003500000EB800101EBC00104EB8101C96D03F0EA
:100360004FF91CBD44000020880300200648C0232C
:1003700030B408240522046061034361C261C16294
:1003800030BC01F003BF00000403002030B40A4C6D
:100390000A4B246804EB440403EB84039B689C88A9
:1003A0001D68E41DDB88E408203A14FB02F203FB1D
:1003B000025230BC00F06ABE4400002070040020ED
:1003C000094810B50068816941F00101816101228D
:1003D0000648110301F03AFB01220548BDE8104030
:1003E000082101F033BB00008803002000200240F8
:1003F000002802402DE9F0470027044615468946AB
:1004000010463A4600E0521C10F8011B0029FAD1B0
:1004100000F000FADFF89CC0012B274EDCF800103A
:1004200001EB410106EB810189688988B0FBF1F09D
:1004300002D0022B09D104E0801A484304EB50009B
:1004400002E0801A4843001B84B247F6FF71601E29
:10045000884200D30124E04600F0DCF90146D8F8D8
:10046000000000EB400006EB80008068808807FBFE
:10047000101189B2814213D3012012E0494620466F
:10048000FFF784FFD8F800007F1CBFB26D1C00EBA3
:10049000400006EB800080688088204484B2DBE75F
:1004A00000202A780AB1012100E000210842E5D1AC
:1004B000BDE8F08744000020700400202DE9FF4FC4
:1004C00082461446032089460025A0EB440878E0C4
:1004D0003E4EA9EB040B3E4F0AEB0500316801EBE1
:1004E000410157F821201FFA8BF1039080B200F0F0
:1004F000AFF830681FFA8BF100EB400057F820206E
:10050000AAEB0500029080B200F0A2F83068A9EBD7
:10051000050B1FFA8BF100EB400057F820200AEB87
:100520000400019080B200F093F830681FFA8BF15C
:1005300000EB400057F82020AAEB0400009080B2A6
:1005400000F086F8316809EB040B039801EB4101D8
:1005500080B257F821201FFA8BF100F079F830684B
:100560001FFA8BF100EB400057F82020029880B270
:1005700000F06EF8326809EB050B01981FFA8BF159
:1005800002EB420280B257F8222000F061F8326894
:100590001FFA8BF1009802EB420280B257F822203A
:1005A00000F056F8B8F1000F04DA08EB850000F10E
:1005B000060805E0291B641E08EB810000F10A080B
:1005C0006D1CA54284D9BDE8FF8F000044000020C7
:1005D000700400207CB51C4B06460D461B4C186869
:1005E00000EB800101EBC00004EB8000806C02286E
:1005F0001BD000F00FF9196800FB056001EB8105C5
:1006000005EBC10104EB8101C96D01EB80011868A4
:100610000E4D0024E83500EB400355F82330CDE9BA
:100620000043012302F0ECFF7CBD00F0F3F81968F1
:1006300000FB056001EB810505EBC10104EB8101C5
:10064000C96D01EB4001E2E744000020880300206F
:10065000164B70B506460D461868154C00EB800128
:1006600001EBC00004EB8000806C02280ED000F08B
:10067000D1F8196805FB006001EB810303EBC101B0
:1006800004EB8101C96D41F8202070BD00F0C2F873
:10069000196805FB006001EB810303EBC10104EB6A
:1006A0008101C96D21F8102070BD000044000020B8
:1006B000880300202DE9F74FDFF8B490144603209B
:1006C000DFF8B0A0A0EB44060F4600259046D9F80D
:1006D000000082B000EB40015AF8210000F006FA59
:1006E0004FF6FF7B31E08CB102980BEA44027B1994
:1006F000001BCDE9000299B280B2FFF76BFF0098B2
:10070000791B89B2019A80B2FFF764FF8DB102981C
:100710000BEA45023B1B401BCDE9000299B280B2B7
:10072000FFF758FF0098391989B2019A80B2FFF794
:1007300051FF002E03DA06EB8506B61D04E0281BE8
:10074000641E06EB80060A366D1CA542CBD9D9F88B
:10075000000000EB40015AF8210000F0C7F90298B0
:1007600005B042463946BDE8F04FFFF7A7BE00008E
:1007700044000020700400202DE9FC419846234BE2
:100780000746234E15460C46186800EB400056F805
:10079000200000F0ABF91868A6F1E80200EB800138
:1007A00001EBC00002EB8000806C02281FD000F03B
:1007B00031F8196800FB047001EB810404EBC101FE
:1007C00002EB8101C96D01EB800400BF00F022F84B
:1007D000411B1868434600EB400256F82220CDE941
:1007E00000122A46214602F00BFFBDE8FC8100F012
:1007F00011F8196800FB047001EB810404EBC101DE
:1008000002EB8101C96D01EB4004DFE744000020E9
:10081000700400200548006800EB800101EBC00077
:10082000034901EB8000006E704700004400002087
:10083000880300200548006800EB800101EBC00040
:10084000034901EB8000406E704700004400002027
:10085000880300202DE9F041224C2820092140F294
:100860001B1604F1140840F21525352240F21D1C18
:100870000B2340F2352788E8EF1000212046FFF7D0
:1008800075FD4FF4F07222664FF4887161660020A6
:1008900084F8340084F8350084F836006060A06085
:1008A000114AE06022602061204601F012FB18B975
:1008B0000021204600F05CF80A4801F00DFB0122FF
:1008C0000A48110301F0C2F809480122082101F089
:1008D000BDF800F017F9074800F0FAF80020BDE86D
:1008E000F0810000880300200068014000200240E1
:1008F000002802404800002030B58DB00A46002391
:1009000004460093FFF786FFCDE90103FFF792FF4E
:10091000FF21039007208DF8303009924FF4C06515
:100920008DF83130CDE9043106938DF83230CDE9C0
:100930000750FFF76FFF0A90FFF77CFF0B902246EE
:100940000948694601F09CFA074904EB44004FF05E
:10095000FF34E83101EB800223065460034C9460BD
:1009600041F820300DB030BD880300204800002041
:100970004748F0B5016887B041F0806101600068C8
:1009800000F08060059042481438016841F400018D
:100990000160016801F400010591016841F0100156
:1009A0000160016801F010010591016841F040010A
:1009B0000160016801F040010591016841F4807116
:1009C0000160016801F480710591016841F40071D2
:1009D0000160016801F400710591016841F48061D2
:1009E0000160016801F480610591016841F4807142
:1009F0000160016801F480710591016841F4806132
:100A00000160006802240E2500F48060059010202B
:100A1000CDE9000402A8002180E832001D486946A3
:100A200000F028FFE6026946092004901A48CDE943
:100A3000006400F01FFF194F4FF46640CDE9000439
:100A400069463846049500F015FF4EF6FF7069467A
:100A5000CDE900041248049500F00CFF0495F7203E
:100A6000104D6946CDE90004284600F003FF01243B
:100A700069463846CDE9006400F0FCFE082069466E
:100A8000CDE90004284600F0F5FE07B0F0BD0000F7
:100A9000443802400010024000180240002002408A
:100AA000002402400028024001490860704700000D
:100AB000440000200449054A096801EB410102EBAA
:100AC000810148607047000044000020700400204D
:100AD0000449054A096801EB410102EB8101886084
:100AE0007047000044000020700400200349044ABD
:100AF000096801EB410142F82100704744000020E1
:100B0000700400201B4802222DE9F04100F134015D
:100B1000174E07230660042581E82C00CB600024D3
:100B20000A61D7014A6110238A619102446040261C
:100B3000C0E902454A00C0E90741C0E90924103074
:100B4000002180E8C800103800F05EF80949094823
:100B5000343102F01DF8084D10B10120287000E07A
:100B60002C7040F2036000F009F82878BDE8F081AD
:100B7000400100A048050020500000202DE9F84366
:100B8000204C102700254FF6FF78012600952146BE
:100B90008146C4E90067C4E90265A1F150004246FC
:100BA00002F02AF8012000F0A7FD02202146C4E946
:100BB0000007C4E90265A1F15000424602F01CF8AA
:100BC00003214246C4E9001708202146C4E9020572
:100BD000A1F1500002F010F84FF4087000900421C9
:100BE0004246C4E90260C4E900172146A1F1500061
:100BF00002F002F8A4F150004946BDE8F84301F0C4
:100C0000EABF000098050020F0B504464F4887B0C1
:100C1000016841F00101016000684C4900F00100E9
:100C200005900839086840F480000860086800F4FE
:100C300080000590086840F004000860086800F033
:100C400004000590086840F008000860086800F09B
:100C500008000590086840F010000860086800F07F
:100C600010000590086840F020000860086800F057
:100C700020000590086840F040000860086800F017
:100C800040000590086840F0800008600868012175
:100C90000C2200F0800005900220CDE9010108231C
:100CA0000093CDE903022A48694600F0E3FD4CF2C7
:100CB000037000902748694600F0DCFD4FF6837012
:100CC00000902548694600F0D5FD4FF63F000090A2
:100CD0002248694600F0CEFD48F2331000902048CB
:100CE000694600F0C7FD282000901E48694600F0C4
:100CF000C1FD1D494FF4007500224FF0800CEE003D
:100D00006F004A606801C1E902C5C1E90476183183
:100D1000164EC300032581E80D00C1E903254A6191
:100D20008A6141F8186D21630F488C6300F041FC23
:100D30000D4800F06FFC00220F21382001F0F4F97B
:100D4000382001F0E3F907B0F0BD00003838024068
:100D500000080240000C0240001002400014024053
:100D600000180240001C0240880400201064024069
:100D70002DE9F04F95B0584D4FF0000B06465C46FC
:100D8000CDF844B0CDF848B0CDF84CB0A8680169B2
:100D900068788847002830707ED000240DF1100A52
:100DA0000DF1380908AF8BE0A8680DF12C080AEBAB
:100DB000440208EB44014369687898472878012881
:100DC00007D138F8142029F814203AF8141027F81D
:100DD0001410810705D538F81410C1F5805129F891
:100DE0001410410705D53AF81410C1F5805127F8C1
:100DF0001410000707D538F8140027F814003AF843
:100E0000141029F81410DFF8D48039F8140058F8B9
:100E10002410884201D9421A00E00A1A2F491FFA09
:100E200082FC37F81420143151F824309A4201D949
:100E3000D31A00E09B1A9BB26344052B03D948F8F0
:100E4000240041F8242095F801C0BCF1700F26D091
:100E500058F8242006EB44006B885A43120B42805A
:100E600051F82410AA885143090B818113A8214607
:100E700012AB009011AA604603F064FD301911997D
:100E80008175129980F82010139979B101290FD03A
:100E9000022910D0032900E01AE010D10DE006EB82
:100EA0004401488037F814008881DFE7012100E021
:100EB0000221C17603E00321FBE780F81BB0641C2C
:100EC0003078A0423FF670AF304600F009F8044693
:100ED00015B02046BDE8F08F54000020A805002082
:100EE000F8B5044614480026694600963546407811
:100EF00003F018FD0098182816D005DC68B11028FA
:100F00000DD0142806D10CE01C280FD040280FD09B
:100F100049280FD001252846F8BDA662FBE701202D
:100F200000E00220A062F6E70320FBE70420F9E7D7
:100F30000520F7E70620F5E75400002070B50C4CBB
:100F400000260C4D60807020A18029688847696860
:100F500070208847512802D00326304670BDA56016
:100F60007020607008212170E9688847F5E700006B
:100F70005400002060000020FEE7F0B5059C44EA24
:100F8000034503685C6C04F040442C435C640368D4
:100F9000DA634268B2F5403F02D00068C160F0BD3C
:100FA00001F47F42856801F47F04224301F07F430E
:100FB00001F47F0701F47F46CCB2BDB1012D16D0FC
:100FC00001F47F02C1F3C401D20C022D11D0032D14
:100FD00014D0320B390D15011A0F45EA01232109EE
:100FE00043EA02320A4300688263F0BD1A43224397
:100FF000F9E7B30A5B0143EAC222F3E7F40ADB0F25
:10100000640144EA822242EAC332EBE70168182312
:10101000CAB2103AB2FBF3F2054B6FF30901032A8F
:101020009B5CC36500D9091D8165084670470000B7
:101030002C4E000810B583694FF0C074826A0146D7
:10104000002053B1B3F5005F15D072B1012A0CD066
:10105000022A0AD0032A09D104E01AB1012A06D0D3
:10106000022A03D1C96AC90100D5012010BDC96A8D
:10107000A142FAD010BD002AF7D0012AF2D0022AEC
:10108000F3D0032AF3D010BD704700002DE9F74FCD
:1010900029480026DFF89CA0006800EB40000AEB1E
:1010A000800080688588C788E81D834620F0070097
:1010B000401B00F0FF0939E04FEADB0102980129EB
:1010C00001FB060009D0022909D001784278837813
:1010D000080440EA0220184303E0007801E0008899
:1010E00040BA002480461AE02A1B02EB09010120C5
:1010F000491E884010EA080F009800EB04020E48D1
:10110000016890B201EB410202D05AF8222002E0BD
:101110000AEB82014A680199FFF79AFA641CAC4213
:10112000E2D30198401C80B20190761CBE42C3D32A
:10113000BDE8FE8F70040020440000204FF40060E2
:1011400000F08CBBF0B5D1E90125D1E90343D1E929
:1011500005762A43D1F800C044EA0304D1E90735F3
:1011600042EA0402496A42EA0702BCF1010F42EA7C
:10117000060208D004681A432A430A43E30BDB0340
:101180001A4302600BE0066844682B4326F4F845D6
:1011900029430B4303606FF30E0422434260002097
:1011A000F0BD426942EA410141610020704738B513
:1011B00091E81C00C9686FF01F051A4305EB441441
:1011C00044EA41210A4300920261002038BD000038
:1011D0002DE9F043914691E81C006FF00F05521E77
:1011E0002E0105EB03131A430B7E06EB04268C8AB3
:1011F0002F034FEA054C0D8A32434FF07F4808EB2E
:101200000366CB68B9F1010F07EB05450CEB0454FD
:101210000CD081683F1107EB03331A432A43224362
:10122000324301F070410A43826011E08168DFF8C7
:1012300028C0C7681B03A3F5805323432A4301EA50
:101240000C0132430B43836007F070442243C260B9
:101250000020BDE8F0830000FF0F0FFFF0B501266E
:10126000044600201E2301E05B1E05D303F01F0788
:1012700006FA07F50D42F7D072B1082A0AD0102AF3
:1012800005D0182A01D1072B06D30120F0BD082B69
:10129000FBD201E0102BF8D22368596121688B68DA
:1012A00023F0180313438B60F0BD000010B5040059
:1012B00010D0607F20B900202077204600F032F85F
:1012C00021790220607739B1D4E902122046FFF774
:1012D000C5FF48B1012010BD216811484861206850
:1012E000816821F0180181606079A0B121682069CE
:1012F0000861012220686369816821F06001194357
:1013000081602068A369816821F0800119438160B0
:101310006277002010BD21684FF0FF30E8E7000041
:10132000B71DC10408B500680649884208D10648BF
:10133000016841F480510160006800F48050009021
:1013400008BD0000003002403038024070B590F80F
:101350003820012A23D0244C012680F8386002234B
:1013600000EB011280F83930158CD36918320A2B42
:1013700043EA054515D0092B13D0137B45EA0363D7
:10138000056899B1E969A1431943E96101681368E6
:101390000B6151680A291BD0092919D01DE00220D0
:1013A00070BDD36803F07F432B43E9E7696AA1432B
:1013B00019436962016813688B6151680A2901D079
:1013C00009290AD1D168026821F07F41916204E0C5
:1013D000D168026821F07F411162002180F83960F4
:1013E00080F83810084670BD0F0003FF70B5040088
:1013F00004D094F83900002510B106E0012070BD3A
:10140000204684F8385000F01FF8022084F8390094
:10141000D4E900030121026822F440321A43026039
:101420002068A368426B22F007021A4342632068D7
:10143000E368026C6FF30D021A430264E56384F8FB
:101440003910002070BD000008B5006806498842C8
:1014500008D10648016841F400010160006800F409
:101460000000009008BD000000B00240303802408B
:101470002DE9F8430026044604270D4600964FF058
:10148000030800680068C00726D000F0E5FA81462E
:101490001EE04068009010F0210F10D000988006E8
:1014A00003D5E06B40F00200E0630098C00703D072
:1014B000E06B40F00100E0632168212035E0681C0A
:1014C00006D000F0C9FAA0EB0900A8424DD8A5B398
:1014D000206841688907DCD52068C169406A01F04D
:1014E000200100F02000084335D000F0B5FA814615
:1014F0002DE04068009010F0290F1FD000980007E1
:1015000003D5E06B40F00400E0630098800603D54B
:10151000E06B40F00200E0630098C00703D0E06B8E
:1015200040F00100E06321682920886084F8397068
:10153000012084F83860BDE8F88316E0681C06D006
:1015400000F08AFAA0EB0900A8420ED86DB120681D
:101550004168C906CDD5226812210120916084F826
:101560003900002084F83860E5E7E16B84F83860E2
:1015700041F02001E16384F839800320DBE7F8B50E
:101580000446069894F83850012D10D0012684F8AE
:101590003860022584F8395000902046FFF7EDFCB2
:1015A0002068016841F0010101600020F8BD0220BF
:1015B000F8BD70B504002BD094F83500022826D071
:1015C000206800252122016821F0010101602068C6
:1015D000056020684560206885602068C5602068D7
:1015E0000561206842612046FFF710FD94F85C20F9
:1015F0003F2191408160E56325646564A564E564ED
:101600002565656584F83550002084F8345070BD38
:10161000012070BD2DE9F047044600F01DFA054693
:1016200064B14FF0000984F83490022184F8351039
:101630002068016821F0010101600EE00120BDE891
:10164000F08700BF00F008FA401B052805D92021CB
:101650006165032084F83500F1E720680068C00761
:10166000F0D1D4E90020D4E90251D4E9043C284364
:1016700004F1180519430843116895E8E00140EAB0
:101680000C001C4B2843194040EA060040EA0700C2
:10169000B8F1040F40EA010003D1D4E90B13194358
:1016A0000843106020680126656A4069042D20F017
:1016B000070045EA00050CD1D4E90A01054341B110
:1016C0002046FFF7B7FC20B14020606584F8356004
:1016D000B4E7206845612046FFF798FC94F85C3039
:1016E0003F229A408260C4F8549084F8356000200C
:1016F000A5E700003F8010F070B5044600F0ACF99B
:101700000546601C02D004480078044400F0A4F9A7
:10171000401BA042FAD370BD38000020F0B587B05E
:1017200014216846FEF7C9FD2148016800293CD113
:10173000012101601F48016841F00101016000685A
:1017400002240025694600F00100059003264FF6AB
:1017500083700C278DE8F100174800F08BF848F2F1
:10176000331069468DE8F100144800F083F84CF21C
:10177000037069468DE8F100114800F07BF84FF6E0
:101780003F0069468DE8F1000E4800F073F828200C
:1017900069468DE8F1000C4800F06CF808206946B5
:1017A0008DE8F100094800F065F807B0F0BD0000D1
:1017B000300000203838024000100240001802407B
:1017C000000C024000140240001C024000080240CD
:1017D000B0F5006F10B51ED14FF07F442046FEF7E4
:1017E000A9FD0A21012308460BA2FEF703FE124AB7
:1017F0000123D168491C01EBD17020F00100081AC7
:10180000D0607D210A200DA2FEF7F4FD2046BDE840
:101810001040FEF78FBD10BD20202020202020206A
:1018200020202020202020202020202020202020B8
:101830002020202000000000000000202020202088
:101840002020202020202020202020202020202098
:10185000202020202020202020000000044910B556
:101860000A68024202D00860FFF7B2FF10BD000014
:10187000143C01402DE9F84FDFF89CE100224FF0C5
:1018800001084FF0030B4FF00F0A00BF0B6808FA76
:1018900002F42340A34271D14D68022D01D0122DD4
:1018A0000FD1D5080E69570700EB8505A9462D6AAB
:1018B000FF0E0AFA07FCBE4025EA0C052E43C9F8C4
:1018C00020600F79550006680BFA05FC07F0030746
:1018D00026EA0C06AF40374307604E68012E05D05C
:1018E000022E03D0112E01D0122E0ED18668CF68A1
:1018F00026EA0C06AF403743876046680F79A64357
:10190000C7F30017974037434760C4688E6824EADE
:101910000C04AE402643C6604C68E40075D53F4CCD
:10192000256845F480452560246822F00306950764
:1019300004F4804400943A4C2D0F2644D6F808480D
:10194000DFF8E0C00AFA05F7604524EA070401D190
:1019500000272EE0344FB84201D1012729E0334F50
:10196000B84201D1022724E0314FB84201D1032708
:101970001FE0304FB84202D104271AE045E02E4F55
:10198000B84201D1052714E02C4FB84201D10627F7
:101990000FE02B4FB84201D107270AE0294FB84288
:1019A00001D1082705E0284FB84201D1092700E0FE
:1019B0000A27AF4027437546C6F808784E68DEF818
:1019C0000040F60324EA030400D51C43124E2C60A9
:1019D000361D4D683468AD0324EA030400D51C436A
:1019E0000D4F346008374D683C68ED0224EA03046B
:1019F00000D51C43084D3C600C354E682C68B6027F
:101A000024EA030400D51C432C60521C102AFFF466
:101A10003DAFBDE8F88F0000003C01404438024073
:101A20000030014000000240000402400008024073
:101A3000000C024000100240001402400018024056
:101A4000001C024000200240002402400AB18161D3
:101A500070470904FBE700000148806870470000F8
:101A60003800002010B5040014D0242084F8410070
:101A70002068016821F001010160204600F0CAF9E8
:101A80000020606484F84100206384F8420084F8F8
:101A9000400010BD012010BD90F8410070470000CB
:101AA00070B5040004D094F84100002510B106E0A0
:101AB000012070BD204684F8405000F0ACF924208D
:101AC00084F841002068016821F001010160D4E937
:101AD000001020F0706008612068816821F40041E6
:101AE0008160E06821680128A06806D040F40440C5
:101AF0008860E068022803D006E040F40040F7E781
:101B000021684FF40060486020212068114A436832
:101B1000134343602068C26822F40042C26054F854
:101B2000106B0DCC104340EA0320F06054F81C3CCD
:101B3000D4E900021043186054F81C0D026842F00A
:101B400001020260656484F84110256384F8425004
:101B5000002070BD008000022DE9FF4F83B00446D5
:101B600090F841009A469346DDE91087DDF84890E9
:101B7000202874D15FEA080014D09FB194F8400087
:101B800001286CD0012084F84000FFF765FF012296
:101B9000064619230090D103204601F0C7FB002818
:101BA00071D103E04FF4007060646CE00025C4F86C
:101BB0002480222184F84110402084F8420065648A
:101BC0006785534665635A4604992046CDE90096D9
:101BD00001F032FB10B184F8405054E0618DFF27D2
:101BE00034484FF08078FF294FF0007A04D92785D8
:101BF0003A464346009005E0618D534621850090AA
:101C000094F828202046049901F07AFB00224B46E4
:101C100004212046009601F089FBA0BB2068616A80
:101C2000406A0870606A401C6062208D401E81B26C
:101C30002185608D401E6085608DD8B1D1B90022AC
:101C40004B4680212046009601F070FBD8B9608D8C
:101C5000FF2805D927853A464346009506E026E049
:101C6000608D53462085009594F8282020460499DD
:101C700001F046FB608D0028C8D132464946204617
:101C800001F081FB18B1012007B0BDE8F08F216899
:101C90002020094AC86121684B6813404B6084F8D2
:101CA000410084F84250002084F84050ECE70220C4
:101CB000EAE700000024008000E800FE2DE9FF4F65
:101CC00083B0044690F841009A469346DDE91087B8
:101CD000DDF84890202871D15FEA080014D09FB148
:101CE00094F84000012869D0012084F84000FFF7F3
:101CF000B3FE0122064619230090D103204601F0CD
:101D000015FB00286ED103E04FF40070606469E0B9
:101D10000025C4F82480212184F84110402084F853
:101D2000420065646785534665635A4604992046B8
:101D3000CDE9009601F0B2FA10B184F8405051E0BC
:101D4000608DFF274FF08078FF284FF0007A04D98C
:101D500027853A464346009505E0608D5346208529
:101D6000009594F828202046049901F0C9FA3246DB
:101D70004946204601F02EFBA0BB606A216800782E
:101D80008862606A401C6062608D401E6085208DA4
:101D9000401E80B22085618DD9B1D0B900224B465A
:101DA00080212046009601F0C1FAD8B9608DFF2845
:101DB00005D927853A464346009506E026E0608D22
:101DC00053462085009594F828202046049901F078
:101DD00097FA608D0028CAD132464946204601F064
:101DE000D2FA18B1012007B0BDE8F08F2068202199
:101DF000074AC161206843681340436084F841107A
:101E000084F84250002084F84050ECE70220EAE7D2
:101E100000E800FE7047704702488168027811446C
:101E20008160704738000020032010B500F09CF955
:101E3000002000F005F800F051F9002010BD00006E
:101E400070B50D4D04464FF47A700C4A297812682B
:101E5000B0FBF1F0B2FBF0F000F0E6FE48B9102C58
:101E600007D200222146501E00F05EF900206C606F
:101E700070BD012070BD00003800002090000020DF
:101E80002DE9F041044690F8A00016460F460128BF
:101E90001DD0012584F8A050022084F8A10006EB93
:101EA000860000EBC600342204EB80003830FEF7D9
:101EB000EBF932463946204601F0E2FB216800206A
:101EC0004D6284F8A15084F8A000BDE8F0810220A2
:101ED000FBE790F8A10070472DE9F041040004D021
:101EE00094F8A100002518B107E00120BDE8F081B9
:101EF000204684F8A05000F06BF83448022184F8A2
:101F0000A110012202CC8B6923F070438B6194E80D
:101F10004A001943E3681E4354F8043D31439E6967
:101F20003143996121688B6803408B602168A68AE0
:101F3000A7698B683B4343EA06438B602168CB6803
:101F40000340CB602168A38B276ACE683E4346EAF4
:101F50000346CE6021680B6903400B612368A68CA1
:101F6000A76A1969394341EA0641196121684B6939
:101F700003404B612068A38D266B4169314341EAE0
:101F800003414161236894F8351094F83600DE6A05
:101F9000000406F07F46DE62236840EA012094F8E0
:101FA0003460D96A31430143D9622068416B41F002
:101FB000060141632068816941F001018161C4F833
:101FC000A45084F8A120002090E7000000F800F061
:101FD00070B586B0044614216846FEF76EF938499C
:101FE000206888426AD13748016841F08061016009
:101FF000006800F08060059032481438016841F0B4
:1020000010010160016801F010010591016841F4BF
:1020100000710160016801F400710591016841F4EB
:1020200080610160016801F480610591016841F0FF
:1020300040010160016801F040010591016841F42F
:1020400080710160006800240E26694600F48070EB
:1020500005901020009002251B48CDE90154CDE9E0
:102060000346FFF707FC4EF6FF700090CDE90154E0
:1020700016486946CDE90346FFF7FCFBF7200090C0
:10208000CDE9015412486946CDE90346FFF7F2FB5A
:102090000921E8020090CDE90154CDE903410D4842
:1020A0006946FFF7E7FB4FF446400090CDE9015445
:1020B00009486946CDE90346FFF7DCFB06B070BD71
:1020C00000680140443802400010024000240240F1
:1020D0000028024000180240002002400A4808B5CB
:1020E000016841F080510160006800F0805000906C
:1020F0000548001D016841F480410160006800F45A
:102100008040009008BD000040380240002809DBF4
:10211000410900F01F028900012001F1E0219040F7
:10212000C1F80001704700000E4BF0B41B680D466B
:10213000C3F30223C3F10706042E00D90426191D98
:10214000072901D2002300E0DB1E012404FA06F176
:102150009C40491E2940641E994014402143F0BC14
:1021600002F027BA0CED00E0064900F0070210B5B6
:102170004FF6FF040868044B204040EA0220184351
:10218000086010BD0CED00E00000FA052DE9F84FE5
:1021900004460078DFF824944FF000063746C00765
:1021A0000ED0D9F8001021F40001C9F80010D9F8B8
:1021B0000010626B1143C9F80010606B00B9012672
:1021C000FE4D2068843500030ED5E16B286820F4AD
:1021D000401008432860E06BB0F5801F01D010B1BB
:1021E00002E0012600E0012720684FF4800BC002C6
:1021F0000CD5216C286820F4400008432860206C2E
:10220000584501D1012601E000B901272068C1012C
:1022100000D50126800666D5E8483830016841F0CF
:10222000805101600068DFF898A300F080500090B2
:10223000DAF8001041F48071CAF80010FFF70CFCC6
:10224000804605E0FFF708FCA0EB080064287DD875
:10225000DAF80000C005F5D5DFF8608308F16808FA
:10226000D8F8000010F440702AD0218E01F440719B
:10227000814225D0D8F80010D8F8002021F4407110
:1022800042F48032C8F80020D8F8002022F48032CE
:10229000C8F80020C8F80010D8F80000C0070FD018
:1022A000FFF7DAFB824607E0FFF7D6FBA0EB0A0157
:1022B00041F288308142CAD8D8F800008007F3D5AF
:1022C000206BC0F3012103297ED0D9F8001021F43E
:1022D000F811C9F80010228ED8F80010C2F30B02D2
:1022E0001143C8F800102078C00607D5286820F0F0
:1022F000807028602868A16B084328602188AF4857
:102300008830490405D5626E016821F440311143DB
:1023100001602188090405D5A26E016821F44021DD
:10232000114301602168C90305D5E26E016821F4FB
:102330004011114301602168890305D5226F0168AE
:1023400021F4400111430160217800E018E14906C1
:1023500005D5626C016821F0030111430160217809
:10236000090605D5A26C016821F00C01114301603A
:102370002188C90505D5E26C016821F030011143BF
:1023800001602188890505D5226D016821F0C00111
:10239000114301602188490505D5626D016821F46A
:1023A0004071114301602188090505D5A26D0168BE
:1023B00021F44061114301602188C90407D5E26D11
:1023C000016821F4405100E041E01143016021889F
:1023D000890405D5226E016821F440411143016052
:1023E0002168490205D5A26F016821F0806111437F
:1023F000016021684FF0006A890209D5E26F016827
:1024000021F0006111430160E16F514500D10127C6
:1024100021680A0700D50127490305D5626F0168C5
:1024200021F04071114301602168090206D5D4F8FA
:102430008020016821F0805111430160DFF8849110
:10244000012E0ED02068B0F1007F0AD08FE05E4AE6
:10245000D9F80030104023F4F8120243C9F80020E4
:1024600039E7D9F800004E4620F08060C9F8000036
:10247000FFF7F2FA804605E0FFF7EEFAA0EB08005E
:1024800064287DD830680001F6D421784B487C3030
:10249000C90712D0616B81B9237A62680168D0F8EC
:1024A00000C09201C1F3014142EA0142CCF3036151
:1024B00042EA016141EA0371016021680A0303D520
:1024C000E26BB2F5801F04D0C9021AD5216C5945C0
:1024D00017D16368016894F80CC002689B01C1F3CE
:1024E000014143EA0141C2F3027241EA0C6141EA4F
:1024F000027101602968626A21F01F01521E1143B6
:1025000029602168C90110D5238A62680168D0F862
:1025100000C09201C1F3036142EA034242EA016250
:10252000CCF3027142EA01710160216889010CD586
:102530006168228A237B94F808C0890141EA02413C
:1025400041EA036141EA0C7101603168B04641F033
:1025500080613160FFF780FA064604E0FFF77CFAFD
:10256000801B64280CD8D8F800000001F6D56FB3A2
:10257000D9F800004E4620F08050C9F8000000E075
:1025800079E0FFF769FA074605E000BFFFF764FA54
:10259000C01B64286FD83068C0438000F6D5074858
:1025A000216880300A0301D5E26B1AB1C90225D532
:1025B000216C19BB63690168277E08E00838024076
:1025C0000070004000380240FFFCFF0F5AE0026834
:1025D000C1F301419B0143EA0143C2F3027143EAA3
:1025E000076242EA0171016029686FF0FF03A26A85
:1025F00021F4F85103EB022211432960216889027A
:1026000012D5E16F51450FD1238C626901680768CB
:102610009201C1F3036142EA034242EA0162C7F355
:10262000027142EA017101602178090716D56169DA
:102630000268D0F800C08B01277FC2F30362CCF39D
:10264000014143EA014141EA026141EA0771016047
:102650002868E16A20F4403008432860306840F080
:1026600080503060FFF7F8F9044607E0FFF7F4F90F
:10267000001B642802D90320BDE8F88F3068C043EE
:102680008000F3D40020F7E72DE9F04705000F465E
:1026900063D0444E306800F00F00B84209D2306871
:1026A00020F00F0038433060306800F00F00B8426F
:1026B00053D128683C4C810712D5400703D52068C8
:1026C00040F4E05020602878000703D5206840F4EB
:1026D00060402060A968206820F0F0000843206076
:1026E0002878C0072AD0304968680839012810D0F6
:1026F0000968022810D0890700292EDA216821F004
:10270000030101432160FFF7A7F9804641F28839B0
:102710000DE009688903EFE78901EDE7FFF79CF910
:10272000A0EB0801494502D90320BDE8F08768689D
:10273000216801F00C01B1EB800FEFD1306800F09F
:102740000F00B8420BD9306820F00F0038433060DA
:10275000306800F00F00B84201D00120E5E728788A
:10276000400705D5E968206820F4E0500843206060
:102770002878000706D52869216821F4604141EADC
:10278000C000206000F036F82168084AC1F3031148
:10279000515CC840064908600020FFF751FB00204B
:1027A000C3E70000003C024008380240EC68000823
:1027B000900000200449054809680068044AC1F3F4
:1027C0008221515CC84070470838024090000020C8
:1027D000FC6800080449054809680068044AC1F318
:1027E0004231515CC84070470838024090000020D8
:1027F000FC680008154910B51548096811F00C026D
:1028000013D01449042A0FD0082A0ED10F4C241FCC
:102810002268236802F03F025B0207D52068C0F3FC
:102820008810A0FB010106E0084610BD2168C1F335
:102830008811A1FB00010023FDF7E2FC2168C1F330
:102840000141491C4900B0FBF1F010BD08380240BD
:102850000024F40040787D012DE9F84F05004FF089
:1028600000076ED02878DFF81C93A9F1040AC0078E
:10287000AAF104044CD0D9F800104846C1F38101F4
:10288000012908D00068C0F3810002280AD1DAF8D3
:102890000000400206D52068800339D5686800280A
:1028A000DFD035E06868B0F5803F0BD010B1B0F5EF
:1028B000A02F11D0206820F480302060206820F400
:1028C000802002E0206840F480302060686890B189
:1028D000FFF7C2F806460AE0206840F48020206036
:1028E000F0E700BFFFF7B8F8801B642872D82068B3
:1028F0008003F7D50CE0FFF7AFF8064605E000BF10
:10290000FFF7AAF8801B6428F0D820688003F7D46A
:102910002878800742D5D9F80010484611F00C0FEE
:1029200008D00068C0F3810002280BD1DAF800005B
:10293000400207D42068800718D5E868012800D134
:1029400014E01CE1E8680028206817D040F001007E
:102950002060FFF781F8064605E000BFFFF77CF82E
:10296000801B0228C2D820688007F7D52869216813
:1029700021F0F80141EAC00020600FE020F00100E2
:102980002060FFF769F8064605E000BFFFF764F82E
:10299000801B02281ED820688007F7D428780007FB
:1029A00029D5784869696C3000298046016812D0C1
:1029B00041F001010160FFF74FF8064605E000BF56
:1029C000FFF74AF8801B022804D8D8F800008007D7
:1029D000F6D510E089E021F001010160FFF73CF835
:1029E000064604E0FFF738F8801B02287DD8D8F8A7
:1029F00000008007F6D4287840076BD5DFF8848183
:102A000008F13808D8F80000C0000BD4D8F800103E
:102A100041F08051C8F80010D8F80000012700F0FC
:102A20008050009058480168C90512D40168834657
:102A300041F480710160FFF70FF8064605E000BF22
:102A4000FFF70AF8801B64284FD8DBF80000C005A8
:102A5000F6D54C4EA868683601280AD008B105287A
:102A600011D0306820F001003060306820F00400A0
:102A700002E0306840F001003060A868A0B1FEF7C5
:102A8000EBFF83460CE0306840F004003060F0E774
:102A9000FEF7E2FFA0EB0B0141F28830814266D8DD
:102AA00030688007F4D50EE0FEF7D6FF834607E0D6
:102AB000FEF7D2FFA0EB0B0141F28830814256D8DD
:102AC00030688007F4D42FB1D8F8001021F080517D
:102AD000C8F80010A869C8B3D9F80010C1F3810183
:102AE00002294CD00228206800E040E020F08070ED
:102AF000206003D0FEF7B0FF05463BE0FEF7ACFFD9
:102B0000064604E0FEF7A8FF801B02282FD82068A5
:102B10008001F7D4D5E90962D5E907011B4B5708B5
:102B200095F82C20084303EB074343EA861108433A
:102B300040EA026040F00050CAF80000206840F00F
:102B400080702060FEF788FF054606E015E000BFB4
:102B5000FEF782FF401B022809D820688001F7D5C4
:102B60000BE000BFFEF778FF401B022802D90320CC
:102B7000BDE8F88F20688001F4D40020F8E7012038
:102B8000F6E7000008380240007000400000FFFF38
:102B900070B504000D4603D094F82C0010B107E086
:102BA000012070BD002084F82D00204600F011F8AF
:102BB000022084F82C002068211DFEF7C3FAD4E916
:102BC00000022946FEF704FB012084F82C000020B7
:102BD00070BDFEF7A3BD10B5044690F82C00022886
:102BE00009D0022084F82C002068FEF7DAFA0120D0
:102BF00084F82C00002010BD70B5044690F82C001D
:102C00000D4602280DD0022084F82C002068FEF723
:102C1000CEFA2868022805D05FF0010084F82C0065
:102C2000002070BD0520F9E7401EB0F1807F10B58F
:102C300001D3012010BD4FF0E02460610F21601727
:102C400001F0B7FC0020A0610721216110BD704791
:102C50007047704770B590F83C20012A24D0134C7F
:102C6000012580F83C50022280F83D20026853681C
:102C7000A242966802D00E4CA24203D14C6823F4C3
:102C8000700323430C6823F0700389681C4354606D
:102C9000002326F0800602683143916080F83D50A1
:102CA00080F83C30184670BD022070BD0000014025
:102CB0000004014010B5040003D094F83D0010B1A9
:102CC00007E0012010BD002084F83C00204600F001
:102CD0000DF8022084F83D002068211D01F0C6F99E
:102CE000012084F83D00002010BD000070B586B0C2
:102CF000054614216846FDF7E0FA2B680021274EAF
:102D00000224254A01252648B3421CD1224B143304
:102D10001E6846F001061E601B6803F00103059360
:102D2000136843F001031360126802F00102059278
:102D300082150092CDE90141CDE903156946FEF700
:102D400099FD06B070BDB3F1804FFAD1124B10332C
:102D50001E6846F001061E601B6803F00103059320
:102D6000136843F001031360126802F00102059238
:102D70004FF400420092CDE90141CDE903156946C7
:102D8000FEF778FD00221C201146FFF7CDF91C202C
:102D9000FFF7BCF9D5E700003038024000000140E1
:102DA000000002400168094ACB6843F00103CB6090
:102DB000016888681040062806D0B0F5803F03D02F
:102DC000086840F00100086000207047070001001B
:102DD00070B5044690F83C00012817D0324B01250D
:102DE00084F83C50022084F83D0022689068184026
:102DF00020F47F4090600868502830D00DDC2028F7
:102E00004DD005DC98B310283BD148E0022070BDBE
:102E1000302844D0402834D139E0602828D07028A8
:102E200006D0B0F5805F2CD0B0F5005F29D10AE064
:102E30004A682068D1E9021301F07EF920688168B0
:102E400041F0770109E04A682068D1E9021301F0F6
:102E500073F92068816841F48041816011E0CA689B
:102E60004968206801F079F92068502107E016E0F0
:102E7000CA684968206801F081F92068602101F082
:102E800064F9002084F83D5084F83C0070BDCA68A5
:102E90004968206801F061F920684021EFE7226865
:102EA00001461046EBE7000088FFFEFF704770B553
:102EB0000446006800250169C943890715D4C16823
:102EC000C943890711D4EA1E0261012121772068D4
:102ED00080698007204602D0FFF7E8FF04E000F099
:102EE000A7F8204600F0A5F8257720680169C943B6
:102EF000490717D4C168C943490713D402216FF0A9
:102F00000402026121772068806910F4407F204626
:102F100002D0FFF7CBFF04E000F08AF8204600F073
:102F200088F8257720680169C943090716D4C16864
:102F3000C943090712D404216FF008020261217706
:102F40002068C0698007204602D0FFF7AFFF04E089
:102F500000F06EF8204600F06CF8257720680169D3
:102F6000C943C90617D4C168C943C90613D4082187
:102F70006FF01002026121772068C06910F4407F71
:102F8000204602D0FFF792FF04E000F051F82046FF
:102F900000F04FF8257720680169C943C90708D1B7
:102FA000C168C943C90704D1891E0161204600F0E8
:102FB00041F820680169C943090609D4C168C943B9
:102FC000090605D46FF0800101612046FFF740FE3D
:102FD00020680169C943C90509D4C168C943090604
:102FE00005D46FF4807101612046FFF730FE206840
:102FF0000169C943490609D4C168C943490605D4D2
:103000006FF040010161204600F044F8206801693A
:10301000C94389060BD4C168C943890607D46FF038
:10302000200101612046BDE87040FFF712BE70BD6F
:103030007047704770B5154C6069401C6061A168AD
:1030400088421BD1E068C8B901F0D4FB0A210123F2
:10305000084604F11C02FDF7CDF901F0CBFA01F0AE
:103060009BFB0B4D002060616888F02801D201F0C5
:103070009BFDA888F02801D901F0B6FEA16860691F
:1030800090FBF1F201FB1200606170BD00000020B6
:10309000D8020020704710B5040002D0606F10B154
:1030A00007E0012010BD002084F87000204600F0E9
:1030B00025F8242060672068016821F00101016083
:1030C000204601F01BF90128ECD0606A10B12046BF
:1030D00001F092F82068416821F490414160206835
:1030E000816821F02A0181602068016841F00101B6
:1030F00001602046BDE8104001F0E2B870B586B02E
:10310000044614216846FDF7D8F81C492068884217
:1031100031D11B48016841F010010160006800F0E6
:103120001000059016481438016841F00201016052
:10313000016801F002010591016841F0010101609F
:10314000006800240726694600F0010005908020F1
:10315000009002250B48CDE90154CDE90346FEF766
:1031600089FB28020090CDE9015407486946CDE962
:103170000346FEF77FFB06B070BD00000010014063
:10318000443802400004024000000240FEE70168AB
:103190008A69D243920701D400228A620068816959
:1031A000C943C90703D0816941F0010181617047BA
:1031B0002DE9F0410446006890460E468069C04300
:1031C000C00635D40025202720688069C0438006CA
:1031D00016D5701CF8D0FEF73FFCA0EB0800B042FB
:1031E00001D8002EF0D1606C84F8405040F02000EF
:1031F000606484F8417084F842500120BDE8F08199
:1032000021681020C8612068C7612046FFF7BFFF12
:103210002068084942680A404260606C40F004003F
:10322000606484F8417084F8425084F84050E4E7C8
:103230000020E3E700E800FE2DE9F84317460446C6
:103240001548DAB2DDE908981E46009000232046B2
:1032500000F056F842464946204600F0BBF8B8B99F
:10326000012EFDB208D02068390A816242464946E3
:10327000204600F0AFF858B920688562002240214E
:103280004B462046CDF8008000F050F8002800D0D2
:103290000120BDE8F8830000002000802DE9F843FC
:1032A0000446164817461E46DAB20090C30220466E
:1032B000DDE9089800F024F842464946204600F02F
:1032C00089F8B8B9012EFDB208D02068390A8162A8
:1032D00042464946204600F07DF858B9206885628C
:1032E000002280214B462046CDF8008000F01EF8D9
:1032F000002800D00120BDE8F883000000200080F5
:1033000070B50068C1F30901074E41EA0241049C0F
:103310004FF480654268194305EA54553543AA4382
:1033200021430A43426070BDFF63FF032DE9F04172
:103330001D4617460E460446DDF8188008E0681C56
:1033400006D0FEF789FBA0EB0800A8420BD855B1C8
:103350002068806936EA000013D00020B842EED021
:103360000020BDE8F081626C002084F8400020213C
:1033700042F02002626484F8411084F84200012087
:10338000EFE70120EAE770B516460D4604460DE06A
:10339000324629462046FFF70BFF08B1012070BDD9
:1033A000FEF75AFB801BA84207D835B12068806918
:1033B000C0438006ECD4002070BD626C002084F80D
:1033C0004000202142F02002626484F8411084F819
:1033D0004200E3E770B516460D4604460FE032465C
:1033E00029462046FFF7E4FE08B1012070BD681CA5
:1033F00005D0FEF731FB801BA84207D835B1206805
:103400008069C0438007EAD4002070BD626C002050
:1034100084F84000202142F02002626484F84110C8
:1034200084F84200E1E710B50446FEF71BFB204696
:10343000BDE81040AFF3008010B50446FEF72CFB4A
:10344000002818D10C48844201D10C4800E00C48F7
:1034500001210C4A206000206260C4E90201206161
:103460006061E0612062204600F00EF82046BDE871
:103470001040FEF715BB10BDD0050020005C0040D9
:103480000054004032279140F0B542490022424B9F
:1034900087B0424D4FF48076414C9842D1F800C03D
:1034A0004FF012004FF002034FF0040737D14CF0F9
:1034B000800CC1F800C009680DF1080C01F0800112
:1034C00005918021CDE900108CE88C00354F6946CC
:1034D0003846FEF7CFF9694638460096FEF7CAF936
:1034E000286840F400002860286800F40000059077
:1034F000206840F400002060206820F40000206074
:1035000000220F214820FEF70FFE4820FEF7FEFDA7
:1035100000220F214920FEF707FE492035E04CF03C
:10352000020CC1F800C00968CDE9022301F00201D4
:10353000CDE90471CDE900601B4E69463046FEF7C7
:1035400099F97015694600903046FEF793F928689E
:1035500040F400102860286800F4001005902068EE
:1035600040F400102060206820F400102060002249
:103570000F211F20FEF7D8FD1F20FEF7C7FD0022F8
:103580000F212020FEF7D0FD2020FEF7BFFD07B061
:10359000F0BD000030380240D00500204038024025
:1035A00020380240001C024000040240FEB50D46D7
:1035B00006464FF47A74DDE908018DE813002946C8
:1035C0003046FEF7C9FA040003D029463046FFF71B
:1035D0002AFF2046FEBDFEB50D4606464FF47A741E
:1035E000DDE908018DE8130029463046FEF766FB49
:1035F000040003D029463046FFF715FF2046FEBDE4
:103600002DE9F84307461B480E461546DDE9081824
:103610004FF440321C464260174A126802EB8203A4
:1036200003EBC202A0F1A80303EB8202926C022A10
:1036300000D000228260114A0260C1600D48FDF78F
:10364000D5FE002814D10B483946FDF77FFE00282F
:103650000ED108482B46324641460094FDF78FFFB5
:10366000002805D1BDE8F84302480A21FDF700BF54
:10367000BDE8F883300400204400002000B0024080
:103680002DE9FE4F81460068882493468D888C2260
:1036900004EBCB178A46C3689421BE46C459C3F3D2
:1036A0000B432B4404F470441F04019702EBCB122C
:1036B00040F80E4001EBCB13DAF800709C214FF07C
:1036C000AC0C01EBCB1440F2077102910CEBCB1167
:1036D000D9F800C098250020CDF800C0A02605EB41
:1036E000CB15DCF80CC006EBCB16CCF30B4C0CF175
:1036F000010C07EB0C08DDF800C0019F48EA070841
:103700004CF80E80D9F80070BAF80CC0B846FF68C3
:10371000C7F30A0767444FEA074E58F8027007F4E8
:10372000704C48F802C0D9F800C0DAF80870DCF82C
:103730000C80C8F30A0808F10108B84448EA0E08EA
:103740004CF80280D9F80020D75827F00707D75047
:10375000D9F80070DAF81020FA509AF831209AF867
:1037600018304FEA022C9AF83220120442EA03621F
:10377000D9F800301F5918519AF8303043EA0C0339
:103780001343D9F800201351D9F80020535923F0DE
:10379000FF035351D9F80020DAF814305351D9F807
:1037A00000209359029CA3439351D9F80030DAE9E1
:1037B000072422439A51D9F8002053585050D9F881
:1037C0000020DAF824005050DAF81000C8B30128BD
:1037D0003AD004283AD0022838D0032836D0072817
:1037E00034D00120D9F80030B02505EBCB11B4223C
:1037F00084245D5802EBCB1205F0E0255D50DAE938
:10380000003504EBCB14EB1ABAF828504343454378
:10381000D9F80000DB1C43EA05434350D9F8000007
:1038200081586FF30A018150D9F80000DAF82C10A2
:103830008150D9F80000015941F001010151BDE862
:10384000FE8FFFE70420CDE70320CBE70220C9E786
:1038500070B588B01C216846FCF72FFD0F48002288
:1038600004250D4E80234024C0E90062C0E90225F2
:10387000C0E906320262102142628262C0E9041489
:10388000009101910291039104910591069169467D
:10389000FFF77EF908B070BD400100A0A40200202F
:1038A0002DE9F04F87B014216846FCF706FDFE486D
:1038B000016841F010010160016801F010010591FB
:1038C000016841F040010160016801F0400105918B
:1038D000016841F002010160016801F002010591F7
:1038E000016841F008010160016801F008010591DB
:1038F000016841F004010160016801F004010591D3
:10390000016841F001010160016801F001010591C8
:10391000016841F400710160016801F400710591D2
:10392000016841F480710160016801F480710591C2
:10393000016841F480610160016801F480610591D2
:10394000016841F020010160016801F0200105914A
:10395000016841F08001016000680122202100F02F
:1039600080000590D148FEF771F8D148002241F25D
:103970000C01FEF76BF8CF4800220821FEF766F82D
:103980004FF40059CC4800224946FEF75FF8CB4877
:103990000022C821FEF75AF80024DFF824B30820DB
:1039A00069460294CDE900045846FDF763FF0225FD
:1039B0004FF009080420694602AACDE90005032654
:1039C000584682E85001FDF755FF4FF4D0404FF0C4
:1039D0000B0A02AA6946CDE90005B84882E85004FE
:1039E000FDF748FF30020090122001900120694647
:1039F000CDE9020404200490B248FDF73BFF43F6F2
:103A000023400294CDE900050A206946CDE9036010
:103A1000AC48FDF72FFF10200090CDE90154A948D4
:103A20006946CDE90345FDF725FF80200090082079
:103A30006946CDE90154CDE903409C48FDF71AFFE2
:103A40004FF4F8500294CDE900050C206946CDE909
:103A500003609D48FDF70EFF602000900D2769462A
:103A6000CDE901545846CDE90347FDF703FF402057
:103A70000294CDE900050A206946CDE9036091482A
:103A8000FDF7F8FEE8026946CDE900048F4802948C
:103A9000FDF7F0FE402000908D486946CDE9010415
:103AA0008248FDF7E7FE4FF4E0500294CDE90005AF
:103AB0000A206946CDE903608648FDF7DBFEF02069
:103AC00000900A206946CDE90154CDE903407848C9
:103AD000FDF7D0FE680200900A206946CDE9015446
:103AE000CDE903407548FDF7C5FE20200090012078
:103AF0006946CDE901046D480394FDF7BBFE08203B
:103B00000090CDE9015469486946CDE90347FDF7C6
:103B1000B1FE41F20C00009001206946CDE901049C
:103B200063480394FDF7A6FE67486946CDE9009413
:103B30000294FDF79FFE0820009001206946CDE920
:103B400001045C480394FDF795FE28020090CDE93E
:103B500001545A486946CDE90347FDF78BFE102012
:103B60006946CDE9000451480294FDF783FE042024
:103B70000294CDE900050C206946CDE903604B486D
:103B8000FDF778FE48F204006946CDE900044A4892
:103B90000294FDF76FFE4FF0050B0095CDE901543F
:103BA00043486946CDE9034BFDF764FE0120CDF89B
:103BB0000090CDE90104404869460394FDF75AFEA0
:103BC0004FF4BC400090CDE901543B486946CDE933
:103BD0000347FDF74FFE01200090CDE90154344822
:103BE0006946CDE90345FDF745FEA80200903A4835
:103BF0006946CDE901042E48FDF73CFE344869468C
:103C0000CDF80090CDE901042948FDF733FEC0202E
:103C10000294CDE9000508206946CDE903602A48F1
:103C2000FDF728FE10200294CDE900050A20694620
:103C3000CDE903602048FDF71DFEC820009001205B
:103C40006946CDE901041D480394FDF713FE4FF4C6
:103C5000F8606946CDE9000620480294FDF70AFEA7
:103C60000A20CDF800B06946CDE903601648CDE9D9
:103C70000154FDF7FFFD3220694602AACDE9000597
:103C8000114882E85004FDF7F5FD0420694602AAB8
:103C9000CDE900050B4882E85001FDF7EBFD4FF43C
:103CA000605069461CE0000030380240000C0240C1
:103CB0000020024000280240001C02400018024080
:103CC00000100240000402400008024000240240AC
:103CD0000000121000000240000011100014024009
:103CE00002AACDE90005304882E85001FDF7C2FD87
:103CF00004206946CDE900042C480294FDF7BAFD82
:103D000086212B4802AACDE90015694682E85004B5
:103D1000FDF7B0FD01206946CDE900062448029474
:103D2000FDF7A8FD50200090CDE9015420486946D8
:103D3000CDE90347FDF79EFD1222F0010121CDE9F7
:103D4000000204200490CDE902161A486946FDF7E6
:103D500091FD282000900A206946CDE903601448AF
:103D6000CDE90154FDF786FD40210091CDE90154D4
:103D700010486946CDE90348FDF77CFDB103009189
:103D8000CDE901540C486946CDE9034BFDF772FDBE
:103D9000002201212820FEF7C7F92820FEF7B6F9F6
:103DA00007B0BDE8F08F0000000C02400018024090
:103DB00000000240001C024000040240F0B59BB02D
:103DC00034216846FCF779FA34210DA8FCF775FA1E
:103DD0002A480024284B072140F2E51740F28E269E
:103DE0004FF4257C036005254460032284600E2384
:103DF000C460C0E90441B91CC0E90BC100F118015D
:103E000081E8EC0080F8344080F8354080F8364096
:103E1000FEF762F84FF48066019402940022009449
:103E20006946CDE906468DF8304003940494059424
:103E30008DF831401148CDE908540A940B948DF85F
:103E40003240FEF71DF80D9401220E940DA90F9437
:103E5000109411941294CDE91346CDE915548DF8C0
:103E600064408DF865400548179418948DF86640B5
:103E7000FEF706F81BB0F0BD00680140FC00002012
:103E800010B588B013480024114940F24732059418
:103E9000632306940394049400940194029480E8AC
:103EA0001600C0E9033444618461FEF703FF4FF458
:103EB00080500390074803A9FEF78AFF054869462A
:103EC000009401940294FEF7C5FE08B010BD0000F6
:103ED00000000140A401002010B588B01148002462
:103EE00040F247324FF080410094632301940294E2
:103EF000039404940594069480E81600C0E9033402
:103F00008461FEF7D7FE4FF4805000900548694663
:103F1000FEF75EFF034804A904940694FEF79AFE98
:103F200008B010BDE40100200A48002130B4084C5C
:103F30000C224FF4E1330460C0E90131C160C0E9F3
:103F400004128161C1610162416230BCFFF7A3B814
:103F50000010014024020020FEE7704770477047C0
:103F6000FDF75ABF70B5B4B0302121A8FCF7A5F910
:103F700014212DA8FCF7A1F984216846FCF79DF9CE
:103F80002048016841F080510160006800F08050D5
:103F900032901D48016821F4404141F40041016024
:103FA0000068002529AB00F440403290022421949F
:103FB00010200821A822CDE9274583E81600012614
:103FC0002C94CDE9246021A8FEF746FCE2024FF4D0
:103FD000A0510F20CDE930122DAA052182E8310031
:103FE0002DA8FEF751FBCDE907454820009032216E
:103FF0001195CDE90A65CDE905146846FEF7C6F8C6
:1040000034B070BD4038024000700040104A30B5F6
:104010001048146800210F4B44F4700414600833F6
:1040200005680D4A0D4C45F00105056019600368EF
:10403000051D1340074A03600C322C600568E30538
:10404000034C25F480250560803C1160236030BD61
:1040500088ED00E000380240FFFFF6FE103000243B
:104060000148FEF724BF0000E4010020F0B5274B13
:104070004FF0804E264D02689842264E264F274C20
:1040800009D0704507D0A84205D0B04203D0B8424D
:1040900001D0A04205D1D1F804C022F070024CEA50
:1040A000020298421BD0704519D0A84217D0B042E6
:1040B00015D0B84213D0A04211D0194DA8420ED04D
:1040C000184DA8420BD0184DA84208D0174DA84251
:1040D00005D0174DA84202D0164DA84203D1CD6895
:1040E00022F440722A434D6922F080022A43026082
:1040F00098428A68C2620A68826201D0A04201D1F5
:104100000969016301214161F0BD00000000014027
:104110000004004000080040000C00400004014082
:1041200000400140004401400048014000180040A8
:10413000001C00400020004042EA032283680A433A
:1041400023F47F410A4382607047826822F0700244
:104150000A4342F007018160704710B5036A046AA0
:1041600023F00A0324F00104046284690B4324F061
:10417000F00141EA02118161036210BD10B5036ACA
:1041800023F0100303628369046A23F4704324F06C
:10419000A00443EA0232826144EA0111016210BDC7
:1041A000FDF7AABA0148FFF747B90000D005002083
:1041B0003EB50124002202AB8DF80820CDE9003481
:1041C0000A46234601460348FFF7F0F99DF8080028
:1041D0003EBD0000D005002007B5012382B004AA2F
:1041E000CDE900230A4601460248FFF7F4F905B07D
:1041F00000BD0000D005002090F82410C90706D0AB
:104200000168836A4A6822F400321A434A6090F8CF
:104210002410890706D50168C36A4A6822F48032EF
:104220001A434A6090F82410490706D50168036BC9
:104230004A6822F480221A434A6090F82410090741
:1042400006D50168436B4A6822F400421A434A606B
:1042500090F82410C90606D50168836B8A6822F499
:1042600080521A438A6090F82410890606D50168A6
:10427000C36B8A6822F400521A438A6090F82410B3
:10428000490611D50168036C4A6822F480121A436A
:104290004A60016CB1F5801F06D10168436C4A6821
:1042A00022F4C0021A434A6090F82410090606D589
:1042B0000168826C486820F4002010434860704711
:1042C00038B500250446C567FDF7C6FB03462068E0
:1042D000006800070BD56FF07E400090002220465A
:1042E0004FF4001100F034F908B1032038BD20204C
:1042F000606784F87050A067002038BD2DE9F04158
:1043000004468068DFF818C2864F2368D4E9045257
:10431000E16928431E6800250A438349104306EAE1
:104320000C0606431E604FF400422068E6684368AE
:1043300023F44053334343602368A669206AD3F8CB
:1043400008C030432CF4306606439E602068B842B3
:104350000AD1086810F0030052D001287BD002284F
:104360007AD003286ED186E0704B98420AD1086853
:1043700010F00C0079D004287BD0082877D00C28C6
:1043800060D178E06A4B98420AD1086810F030009A
:104390006BD010286DD0202869D0302852D16AE027
:1043A000644B98420AD1086810F0C0005DD04028E4
:1043B0005FD080285BD0C02844D15CE05E4B98423F
:1043C0000DD1086810F440704FD0B0F5807F50D008
:1043D000B0F5007F4BD0B0F5407F33D14BE0574B69
:1043E00098420FD1086810F4406009D0B0F5806F92
:1043F0003FD0B0F5006F3AD0B0F5406F22D13AE02F
:10440000012120E04E4B98420DD1086810F4405035
:104410002BD0B0F5805F2CD0B0F5005F27D0B0F581
:10442000405F0FD127E0474B98420BD1086810F44A
:1044300040401AD0B0F5804F1BD0904217D0B0F555
:10444000404F18D01021E0694FF6EF76904238D1F6
:1044500009295DD202E00CE009E006E0DFE801F0A6
:104460000D1027582A5858582D000021EBE702213B
:10447000E9E70421E7E70821E5E7FEF79BF901E01A
:10448000FEF7A8F90146D4F80400490001EB5001F9
:10449000B1FBF0F080B2A0F11001B14238D84FF674
:1044A000F0732168C0F342021840104324E026490B
:1044B0006068EBE7FEF79EF9E4E760684FF480314F
:1044C000E4E7092924D2DFE801F0050819231C23B9
:1044D00023231F00FEF76EF901E0FEF77BF901468A
:1044E000D4F8040001EB5001B1FBF0F080B2A0F170
:1044F0001001B1420CD82168C8600AE01349606815
:10450000F0E7FEF777F9EAE7606802EB5001EBE7C6
:1045100001250020206660662846BDE8F081000085
:10452000F369FFEF00100140903802400044004062
:1045300000480040004C0040005000400014014082
:1045400000780040007C00400048E8010024F400AE
:104550002DE9F041984617460E460446069D08E0B0
:10456000681C06D0FDF778FAA0EB0800A8420BD82B
:1045700055B12068C06936EA000017D00020B84263
:10458000EED00020BDE8F0812168202000220B68D9
:1045900023F4D0730B6021688B6823F001038B60D8
:1045A0006067A067032084F87020EBE70120E6E74E
:1045B000FEE7090700284FEA116104DB00F1E02063
:1045C00080F80014704700F00F0000F1E02080F840
:1045D000141D704702E008C8121F08C1002AFAD152
:1045E00070477047002001E001C1121F002AFBD173
:1045F000704700004FF07F4010B5FCF777FA654C2C
:10460000A06930B1012811D002282FD003281FD172
:1046100039E0A0882288401E81B2521E90B2052245
:10462000FCF748F8A0882288801E0BE0A1880522AC
:104630002088491C401E89B280B2FCF73BF8A08854
:104640002288801C81B2921E90B20522FCF732F8BB
:104650006068072826D0B0F5887F23D02168A1F5AF
:104660008072BD3A1ED023291CD062E0A1880522A9
:104670002088491E401C89B280B2FCF71BF8A08834
:104680002288801E0BE0A18805222088491C401C3E
:1046900089B280B2FCF70EF8A0882288801C81B213
:1046A000921CD1E72288401E81B2521E90B2052290
:1046B000FCF700F8A18805222088891E801E89B297
:1046C00080B2FBF7F7FFA0882288401C81B2521EFF
:1046D00090B20522FBF7EEFFA0882288801C81B2F1
:1046E000921E90B20522FBF7E5FFA18805222088E3
:1046F000491E401C89B280B2FBF7DCFFA0882288EB
:10470000801E81B2921C90B20522FBF7D3FFA088D5
:104710002288401C81B2521C90B20522FBF7CAFFCE
:10472000A18805222088891C801C89B280B2FBF7F1
:10473000C1FF4FF0FF30FCF7D9F9A188052220888E
:1047400089B280B2FBF7B6FFA06930B1012807D06B
:10475000022812D0032807D115E02068401C0EE083
:104760002068401C11E060604FF4F070216891FBFC
:10477000F0F200FB1210206010BD2068401E206087
:104780006068401CEFE72068401E20606068401EA3
:10479000E9E7000000000020144810B50168222954
:1047A00012D0B1F5DF7F12D04168072902D0B1F5F0
:1047B000887F17D1816989B1012911D0022912D0CE
:1047C00003290FD102210CE000F0D6FA01E000F03D
:1047D000B3F9BDE810400648FEF769BB012100E0CF
:1047E0000021816110BD0321FBE7000000000020D3
:1047F000E40100201A48F0B50146D0F800C00024BA
:1048000001254B6802268A6903271649ACF5807E8C
:10481000BEF1BD0E15D1B1F804E0BEF1F00F10D914
:10482000C98917E03AB1012A07D0022A07D0032A22
:1048300000D18561F0BD8661F0BD8761F0BD846106
:10484000F0BDBCF1230FFBD1B1F802C0BCF1F00FF9
:10485000F6D28989591A491E3B29E3D9F0BD0000D7
:1048600000000020D802002010B5044C2078002859
:1048700003D1FFF797FC0120207010BD8A000020B3
:10488000C82010B5FFF78CFCBDE81040FFF7ECBF67
:10489000F8B5064600208DF8000004460546FFF7EF
:1048A000E3FFA821F0B2FFF783FC8DF800009DF82C
:1048B0000000512800D10125641CE4B2032C01D270
:1048C000002DEED09DF80000F8BD70477047000045
:1048D00038B500248DF800400221C0B2FFF768FC13
:1048E0008DF800009DF8000000F00F008DF800002A
:1048F0009DF80000052801D98DF800409DF80010B2
:104900000248417084709DF8000038BD8A00002084
:104910000022A421C0B2FFF75FBC0122A421C0B2D3
:10492000FFF75ABC38B50C4600218DF80010012164
:10493000C0B2FFF73DFC8DF800009DF8000020603C
:1049400038BD00002DE9F84306461F46002090467A
:10495000DDF820900A468DF8000001462B4800251E
:104960002C46407890424FD90A2A2DD2DFE802F037
:1049700005090D1115191D212529032107250824D5
:1049800022E009210D250E241EE00F2113251424F9
:104990001AE0152119251A2416E01B211F252024B1
:1049A00012E02121252526240EE027212B252C2469
:1049B0000AE02D213125322406E033213725382421
:1049C00002E039213D253E24F0B2FFF7F1FB8DF8DE
:1049D00000009DF800008109C9F800102946F0B2D6
:1049E000FFF7E6FB8DF800009DF80010F0B2C8F864
:1049F00000102146FFF7DCFB8DF800009DF8000059
:104A0000042101EA10103860BDE8F8838A00002014
:104A10002DE9F84F8A4607464448002193468DF811
:104A200000100E460D460C46827843789A427AD2A0
:104A30000A2A814637D2DFE802F0050A0F14191E50
:104A400023282D3204210326062505242BE00A21E4
:104A500009260C250B2426E010210F2612251124EF
:104A600021E016211526182517241CE01C211B26E1
:104A70001E251D2417E0222121262425232412E0AF
:104A8000282127262A2529240DE02E212D26302510
:104A90002F2408E0342133263625352403E03A213B
:104AA00039263C253B24F8B2FFF782FB8DF8000045
:104AB0009DF80010F8B2DFF87480A8F10208A8F899
:104AC00000103146FFF774FB8DF800009DF80010D0
:104AD000B8F8000001F00F0140EA0120A8F800003A
:104AE0002946AAF80000F8B2FFF762FB8DF8000033
:104AF0009DF80010F8B2A8F800102146FFF758FB07
:104B00008DF800009DF80020B8F8001002F00F02A8
:104B100041EA0221A8F80010ABF8001099F8021041
:104B2000491C89F80210BDE8F88F00008A000020B7
:104B300000207047FFF7ECBE4FF07F4010B5FBF749
:104B4000F9FB18484178491CC9B241703A2904D18F
:104B5000302141700178491C01700A21114A01235A
:104B60000846FBF747FC0F4C8821F0201C3CC4E9A9
:104B70000001FBF777FBC1173C2300EB917121F09B
:104B80000301401AA06105226A211E20FBF7F4FDF3
:104B90003C234FF4E1700522BDE810406A21FBF789
:104BA000EBBD00001C0000204FF07F4010B5FBF76C
:104BB0009DFF052200211E204FF48873FBF7DCFDCA
:104BC0004FF0FF30FBF792FF054C3C2305221E20DF
:104BD000A189FBF7D1FD03496088086110BD000081
:104BE000D80200200000002008B5BFF34F8FBFF3AC
:104BF0006F8F594800240460BFF34F8FBFF36F8F4E
:104C00005649086840F400300860BFF34F8FBFF387
:104C10006F8F524870300460BFF34F8F001F43F610
:104C2000FF7C00684C4D1035C0F34E32C0F3C90311
:104C30000CEA4216184600BF46EA80772F60401EF5
:104C4000FAD2521EF4D2BFF34F8F086840F480307E
:104C50000860BFF34F8FBFF36F8FFDF7E5F8FFF7E5
:104C600081F9FEF71DFEFFF75FF9FFF735F9FFF752
:104C700007F93C4801213A4A0260047144714461D9
:104C800084610162FCF712FB364837492430C0E9E1
:104C900000148460C4608462C46204634463FCF7EB
:104CA000A5FB304801212430FCF750FBFEF7D0FD76
:104CB000FFF784F82D48FEF775F8FBF723FF2C4823
:104CC000016841F48051016000684FF4887100F47C
:104CD000805000904FF4F070FCF730F9FBF7BAFD0C
:104CE00001204FF04041FBF707FE0120FBF7DCFEFF
:104CF000FBF766FB4FF07F442046FBF7DBFE2016F8
:104D0000FBF7F4FE2046FBF715FB1848F430FCF7E0
:104D10002FF8164C3C230522F4341E20A189FBF702
:104D20002BFDE1893C2305224FF4E170FBF724FDC4
:104D3000104D0EE06CB100BFFBF794FAC117641C74
:104D400000EB917121F00301401AA861012CF1DD03
:104D5000FEE70124F0E7000050EF00E014ED00E072
:104D6000003002409800002000B00240E401002022
:104D700030380240000000204FF07F4010B5FBF7B4
:104D8000D9FA18480179491CC9B201713A2904D1EC
:104D900030210171C178491CC1700A21114A0123D7
:104DA0000846FBF727FB0F4C8821F0201C3CC4E988
:104DB0000001FBF757FAC1173C2300EB917121F07A
:104DC0000301401AA06105226A211E20FBF7D4FCD2
:104DD0003C234FF4E1700522BDE810406A21FBF747
:104DE000CBBC00001C00002070B54FF07F40FBF7EB
:104DF0007DFE4FF4E1750522284600214FF48873AB
:104E0000FBF7BAFC4FF0FF30FBF770FE054C3C237C
:104E100005222846E189FBF7AFFC03496088086159
:104E200070BD0000D802002000000020000610160F
:104E30000006101600000000000000000000000046
:104E40000000000000000000000000000000000062
:104E50000000000000000000000000000000000052
:104E60000000000000000000000000000000000042
:104E70000000000000000000000000000000000032
:104E80000000038000038000038000038000038093
:104E90000003800003800003800003800001000005
:104EA00001000000000000000003800003800000FB
:104EB00000000000000000000000000000000000F2
:104EC000000000000000000000000000000E700064
:104ED0000E70000E70000420000420000420000466
:104EE00020000000000000000000000000000000A2
:104EF00000000000000000000000000000000000B2
:104F000000000000000000000000000000000000A1
:104F10000000066000066000066000066000066093
:104F2000003FF8003FF8000660000CC0003FF800AA
:104F30003FF8000CC0000CC0000CC0000CC0000CFE
:104F4000C0000000000000000000000000000000A1
:104F50000000000000000001800001800007B00098
:104F60000FF0001870001870001C00000F80000780
:104F7000E00000F0001830001C30001C70001FE042
:104F8000001BC00001800001800001800001800042
:104F90000000000000000000000000000000000011
:104FA00000000780000FC0001CE0001860001860BF
:104FB000001CE0000FF80007E0001FF000073800B9
:104FC00006180006180007380003F00001E0000092
:104FD00000000000000000000000000000000000D1
:104FE00000000000000000000000000000000000C1
:104FF00003F00007F0000C60000C00000C0000063D
:1050000000000700000F9C001DFC0018F000187045
:10501000000FFC0007DC00000000000000000000A2
:105020000000000000000000000000000000000080
:1050300000000000000380000380000380000100E6
:10504000000100000100000100000000000000005D
:105050000000000000000000000000000000000050
:105060000000000000000000000000000000000040
:1050700000000000000000000000001800003800E0
:1050800000700000F00000E00000E00001C000013E
:10509000C00001C00001C00001C00001C00000E06C
:1050A0000000E000007000007000003800001800F0
:1050B00000000000000000000000000000000000F0
:1050C00000001800001C00000E00000E0000070089
:1050D00000070000038000038000038000038000BD
:1050E0000380000380000700000700000F00000E8F
:1050F00000001C000018000000000000000000007C
:10510000000000000000000000000180000180009D
:105110000180001DB8001FF80007E00003C0000375
:10512000C0000660000660000000000000000000F3
:10513000000000000000000000000000000000006F
:10514000000000000000000000000000000000005F
:1051500000000000000000000180000180000180CC
:10516000000180000180003FFC003FFC0001800046
:10517000018000018000018000018000000000002B
:10518000000000000000000000000000000000001F
:10519000000000000000000000000000000000000F
:1051A00000000000000000000000000000000000FF
:1051B000000000000000000000000000000000E00F
:1051C0000000C00001C00001800001800003000059
:1051D00003000000000000000000000000000000CC
:1051E00000000000000000000000000000000000BF
:1051F000000000000000001FF8001FF80000000081
:10520000000000000000000000000000000000009E
:10521000000000000000000000000000000000008E
:10522000000000000000000000000000000000007E
:10523000000000000000000000000000000000006E
:10524000000000000000000000000000000003C09B
:105250000003C00003C000000000000000000000C8
:105260000000000000000000000000000018000026
:10527000180000380000300000700000600000607E
:105280000000C00000C00001800001800003000099
:105290000300000600000600000E00000C00001CC9
:1052A00000001800001800000000000000000000CE
:1052B0000000000000000000000003C00007E00044
:1052C0000C30000C300018180018180018180018BE
:1052D00018001818001818001818000C30000C30AE
:1052E0000007E00003C00000000000000000000014
:1052F00000000000000000000000000000000000AE
:1053000000000080000780001F80001D80000180D9
:105310000001800001800001800001800001800008
:105320000180000180000180001FF8001FF80000CC
:10533000000000000000000000000000000000006D
:105340000000000000000000000007C0001FF00087
:10535000383000301800301800001800003000000D
:10536000600001C0000380000600000C000018006F
:10537000003FF8003FF800000000000000000000BF
:10538000000000000000000000000000000000001D
:10539000000003C0000FE0000C700000300000307F
:1053A0000000600003C00003E0000070000018006F
:1053B0000018000018001838001FF0000FC000008F
:1053C00000000000000000000000000000000000DD
:1053D0000000000000000000000000E00001E0000C
:1053E00001E0000360000660000660000C60000C35
:1053F00060001860003060003FF8003FF800006077
:105400000003F80003F800000000000000000000A6
:10541000000000000000000000000000000000008C
:1054200000001FF0001FF000180000180000180016
:10543000001BC0001FF0001C300000180000180006
:105440000018000018003030003FF0000FC00000CE
:10545000000000000000000000000000000000004C
:105460000000000000000000000000F80003F80049
:105470000700000E00000C00001800001BC0001FF9
:10548000F0001C30001818001818001818000C380C
:10549000000FF00003E0000000000000000000002A
:1054A00000000000000000000000000000000000FC
:1054B00000001FF8001FF80018180018380000300E
:1054C0000000300000700000600000600000E0009C
:1054D00000C00000C00001C0000180000180000089
:1054E00000000000000000000000000000000000BC
:1054F0000000000000000000000007E0000FF000C6
:105500001C38001818001818000C300007E00007BD
:10551000E0000C30001818001818001818001C388B
:10552000000FF00007E00000000000000000000095
:10553000000000000000000000000000000000006B
:10554000000007C0000FF0001C30001818001818E9
:10555000001818000C38000FF80003D800001800DD
:1055600000300000700000E0001FC0001F000000BD
:10557000000000000000000000000000000000002B
:10558000000000000000000000000000000000001B
:1055900000000000000003C00003C00003C00000C2
:1055A000000000000000000000000000000003C038
:1055B0000003C00003C00000000000000000000065
:1055C00000000000000000000000000000000000DB
:1055D000000000000000000000000000000000F0DB
:1055E0000000F00000F000000000000000000000DB
:1055F00000000000E00001C0000180000180000305
:105600000000020000000000000000000000000098
:10561000000000000000000000000000000000008A
:10562000001C00003C0000F00003C0000F00003C24
:105630000000F000003C00000F000003C00000F07C
:1056400000003C00001C0000000000000000000002
:10565000000000000000000000000000000000004A
:10566000000000000000000000000000000000003A
:10567000007FFC007FFC000000000000007FFC00B9
:105680007FFC00000000000000000000000000009F
:10569000000000000000000000000000000000000A
:1056A00000000000000000000000000000000000FA
:1056B0007000007800001E000007800001E000007C
:1056C0007800001E0000780001E0000780001E0046
:1056D00000780000700000000000000000000000E2
:1056E00000000000000000000000000000000000BA
:1056F000000000000007C0000FE000187000183024
:105700000018300000700000E00003C000038000BB
:105710000300000000000000000700000700000078
:105720000000000000000000000000000000000079
:105730000000000000000000000003E00007F0008F
:105740000E38000C180018780018F80019D8001945
:10575000980019980019980018F800187800180097
:10576000000C00000E180007F80003E00000000025
:105770000000000000000000000000000000000029
:1057800000000000001F80001FC00001C000036077
:10579000000360000630000630000C30000FF800F7
:1057A0001FF800180C00300C00FC7F00FC7F00008C
:1057B00000000000000000000000000000000000E9
:1057C000000000000000000000000000007FE0007A
:1057D0007FF0001838001818001818001838001F3B
:1057E000F0001FF800181C00180C00180C00180C12
:1057F000007FF8007FF000000000000000000000C3
:105800000000000000000000000000000000000098
:10581000000000000003EC000FFC001C1C00180C32
:1058200000300C003000003000003000003000007C
:10583000300000180C001C1C000FF80003F00000E2
:105840000000000000000000000000000000000058
:10585000000000000000000000000000007FC00009
:105860007FF000183800181800180C00180C0018E9
:105870000C00180C00180C00180C00181800183830
:10588000007FF0007FE0000000000000000000004A
:105890000000000000000000000000000000000008
:1058A00000000000007FF8007FF8001818001818AA
:1058B000001998001980001F80001F8000198000C7
:1058C0001998001818001818007FF8007FF80000D9
:1058D00000000000000000000000000000000000C8
:1058E000000000000000000000000000003FFC007D
:1058F0003FFC000C0C000C0C000CCC000CC0000F8A
:10590000C0000FC0000CC0000CC0000C00000C0058
:10591000003FC0003FC00000000000000000000089
:105920000000000000000000000000000000000077
:10593000000000000003EC000FFC001C1C00180C11
:1059400000300C0030000030000030FE0030FE005F
:10595000300C00380C001C1C000FFC0003F0000091
:105960000000000000000000000000000000000037
:10597000000000000000000000000000007E7E002B
:105980007E7E001818001818001818001818001F3C
:10599000F8001FF800181800181800181800181838
:1059A000007E7E007E7E00000000000000000000FF
:1059B00000000000000000000000000000000000E7
:1059C00000000000001FF8001FF8000180000180A7
:1059D0000001800001800001800001800001800042
:1059E0000180000180000180001FF8001FF8000006
:1059F00000000000000000000000000000000000A7
:105A00000000000000000000000000000007FE0091
:105A100007FE0000300000300000300000300000C1
:105A20003000303000303000303000303000306036
:105A3000003FE0000F8000000000000000000000B8
:105A40000000000000000000000000000000000056
:105A500000000000007F3E007F3E0018300018600C
:105A60000018C0001980001B80001FC0001CE0004F
:105A70001870001830001838007F1F007F1F0000CA
:105A80000000000000000000000000000000000016
:105A9000000000000000000000000000007F800007
:105AA0007F80000C00000C00000C00000C00000CBB
:105AB00000000C00000C0C000C0C000C0C000C0C7A
:105AC000007FFC007FFC00000000000000000000E0
:105AD00000000000000000000000000000000000C6
